:100000000C9498070C94C0070C94C0070C94C0077C
:100010000C9479220C94C0070C94C0070C94C00770
:100020000C94C0070C94C0070C94C0070C94C00734
:100030000C94C0070C94C0070C94C0070C94C00724
:100040000C94D7210C94C0070C9447220C942122C5
:100050000C94C0070C94C0070C94C0070C94C00704
:100060000C94B8200C94C0074E414E494E49545947
:10007000494E46CDCCCC3D0AD7233C17B7D1387773
:10008000CC2B329595E6241FB14F0A000020410089
:1000900000C84200401C4620BCBE4CCA1B0E5AAED3
:1000A000C59D7400407A10F35A00A0724E180900E2
:1000B00010A5D4E80000E87648170000E40B5402CD
:1000C0000000CA9A3B000000E1F505000080969808
:1000D00000000040420F000000A086010000001058
:1000E0002700000000E8030000000064000000009A
:1000F000000A00000000000100000000002C76D87B
:1001000088DC674F0823DFC1DFAE59E1B1B796E560
:10011000E3E453C63AE651997696E8E6C28426EBC4
:10012000898C9B62ED407C6FFCEFBC9C9F40F2BAD7
:10013000A56FA5F490055A2AF75C936B6CF9676D6F
:10014000C11BFCE0E40D47FEF520E6B500D0ED90C4
:100150002E0300943577050080841E080000204E91
:100160000A000000C80C333333330F986E1283112A
:1001700041EF8D2114893BE65516CFFEE6DB18D101
:10018000844B381BF77C1D901DA4BBE424203284D3
:10019000725E228100C9F124ECA1E53D2711000423
:1001A00004050504030610100000100010000014E0
:1001B0000000019D401490A16170E244A810A1428A
:1001C00084DAA910A1423C014117102261236B126D
:1001D00021EE94A962E3E2C103F1109216070042F6
:1001E000211022E1134D700489415C0D1A448C44A6
:1001F00031652588119A8A11A311240692160700E9
:100200004316E871E119346AD02857A3448D12735C
:10021000C20CA151A2004419CEA561134BD2981A69
:10022000162E98F084101142440811214402004512
:1002300013EF21E1153DB538C1440D9EBB439345F5
:10024000C902461B90E1610B1F7CF424224908324D
:10025000F12209098262448A1129461800471D0EBD
:100260002261134B94644983E6860C1B328A082171
:100270002264D630A9C2C883070448191022E114A9
:100280004C7830AD82294BA62A59D14A83880D1269
:100290005A3400490E90A16170E293077F30C42761
:1002A000004A20092E6111378C94881121841C1971
:1002B000310D2942234610212164888831A4868982
:1002C000024B1D1022E132A8CA089943434E8940CF
:1002D000B54CAF469C1272688C11520A4D014C10FD
:1002E0000E2261F81F9C07FDE00112260F1E4D1023
:1002F0000A2A61134688FE23EB81122303004E2055
:100300000E2261132C651021A18448238B31620ACF
:1003100009224A69C11102C50C1A85CE10004F1B73
:100320001022E132A84208211303490844875CE601
:10033000C3850F27344CA1290050160F22613AD5EE
:10034000821C89F0B029982E5478980E9E190000CE
:10035000000004FFFF000012000403050504050669
:10036000171700FD14FB14FC00000000019020068C
:10037000002044012A1B6B719E27958C94849884DD
:10038000DCD041CD4C8C849884948C544C0C002B44
:100390000F113AEC4F5E1F1E7C6027AF0F012C0D32
:1003A000E5644365C5C8888CC808002D0747A44D7F
:1003B000E1012E08632C44E140002F16C9A65B4FD3
:1003C0004C4E5D9C6672CAE494C92993D34C0E00CE
:1003D00030228D2684A9EC406668466C446C624EDF
:1003E000624E62CEDF49CC89888D4CCD080D1DC48C
:1003F0001501310F882E8489A6E4E06084686AFFC5
:100400001F32188C2A84C7EA20664A64CA6C72C3F9
:10041000413AC21DD2313C7830331F8D2684A9EC7D
:1004200040666A644C626E745472AEB076533BBBE5
:10043000B389A99903292300341F8E268491B2A180
:10044000DDC49CC8D8C8D4CC94D03653336223635F
:1004500023075FCEEE040035218D2684E180E48001
:1004600064742F8A0E48A826C626E6644747ED2402
:10047000C64686660EC48C0036208D2684C9EA40A6
:10048000666A644C62CE7449CD01490DC59CDF4D4E
:10049000C8C948CD1C88150137168C2A84E183C948
:1004A00095920B272725574A2E9C5C38390638230E
:1004B0008D2684A9EC40666A624E62CE6E424E641E
:1004C0006AE8EC6A48464E62CE77135333076245BA
:1004D0000039208D2684E7EA40666A62CEEF26A6C0
:1004E000480E684A46978AC889888D0C0D1D841964
:1004F000013A0BC32D44E1401EF24000000000040D
:10050000FFFF0000BF0003030304030505070D0000
:10051000FE0AFE0AFF0184030709722005006E0C23
:100520002107D2438C27022208A55A0C0917012360
:10053000104F421C2589E47051395C942412002428
:10054000135F3EBC604512A1C488455A84129114C1
:100550006300251157428CD12454114A8552A1A41D
:1005600014190D260D3F421C928A484412954406E8
:100570002707A25B8C4300280CDD3E3C919A48A6DD
:1005800028132A290DDD3E0CA19A50A62413A90197
:100590002A0E3F46BC70EC349C4944B108002B0B3A
:1005A000B64A2CA1E850128A002C092C3F0CCA8AAA
:1005B00012002D068E520C032E081C431C09450206
:1005C0002F0B5742ECA8A25EA56100300D5742AC3C
:1005D00099448D6F12B51100310AD6422CD988A8E2
:1005E0004F06320C57429C8A8C2615EAF500330ED2
:1005F00057428CAB50912C95D224150034105742A1
:100600004CE18C245192882447A90A00350F5742A7
:100610008C83546A19495569920A00360F57422C47
:1006200092502AB58C68B492A402370C57428CAB16
:10063000A2AA50AA0D00380E57429C8A8C4D5291A6
:1006400071935400390E57429C8AA8C634B12A8A45
:1006500048003A0C44431C09450E935024003B0BC0
:100660004C3F1C09454A5951023C08CE424C99AEB8
:100670003A3D08A64A0C3BD4003E09CE420CA96E76
:100680003A023F0E57429C8A8C2615AACAA14A00FC
:10069000400F4F429CCA4154B18426A1C9D50041A4
:1006A0000C5742AC5945C676A07113421357420C01
:1006B000938A482292945444129144748800430DC2
:1006C00057429CCA8846D5AD24A900441557420C10
:1006D000938A48229288242289482292880E110007
:1006E000450B57428C8354B524D57A460C57428C1F
:1006F0008354B524D51500470D57429C8A8C555319
:100700008D26A900480B57420C19B7038D370149B4
:100710000954430C8A48BF104A0C5742CCA95E6961
:10072000344905004B1057420C199344894693886D
:10073000546434014C0957420CA9FE78084D0D57FA
:10074000420C19AD72A84468BC094E0E57420C19F0
:10075000AD54B2504C6D34014F0B57429C8A8CBF44
:10076000492A00500C57420C8B8CDB2122D50A51B0
:100770000B5F3E9C8A8CBF50CA02521057420C8BB2
:100780008CED1029A98824329A00530E57429C8A76
:100790008CB92CA5D12415005409D6420C93507F56
:1007A00002550A57420C19FF26A900561157420C50
:1007B0001937492C24114964C3690C00570E57425C
:1007C0000C19BF44289183440500581157420C1955
:1007D0004DA224910D671291448D26590CD6420CDE
:1007E0001193844413EA045A0A57428CABA25EA5C3
:1007F000075B08DD3E8C9BFE565C0B57428CB05469
:10080000AC5771005D08DD3E8C9AFE765E09275A72
:10081000BCE84CA2265F060F3E8C0360071C5F0CF1
:100820009902610C3F429CB2E410639A4C04620D41
:1008300057420CA996251A5B893201630C3F429CF2
:10084000CA88AA3A925400640C57425C2D13528D08
:10085000D36422650D3F429C8A8C76A0CA24150081
:10086000660C57422C928A54D124D50867104F3A0F
:100870009C4348229288448C1599A402680B5742E5
:100880000CA996251A6F02690A4C431C9174A40B9B
:10089000016A0D5F3A5C75E0542B8D26A9006B0F41
:1008A00057420CA92689128D2611A9C8046C085438
:1008B000438C91FE426D0D3F421C9583244289D0AA
:1008C000D8046E0A3F420CC9128D37016F0B3F42AC
:1008D0009C8A8C37490500700E4F3A0CC9128DADB9
:1008E000449948A500710C4F3A9C09A9C6693291F8
:1008F0002A720A3F420CC912555700730E3F429CA0
:100900008A4C221E4B64920A00740C57421CA94662
:100910009354938802750A3F420C199F261301765F
:100920000C3F420C19378992443602770D3F420C36
:10093000199708257290A800780D3F420C194DA216
:100940003693A8D104790D4F3A0C194F9389942608
:10095000A9007A083F428CA35E0F7B0DDE3E2C8AF5
:10096000505534950955097C07D2438C07037D0EF9
:10097000DE3E0CAA504D3A920A5548007E091F5A95
:100980009CD1413401A005006E0CA108D2430CD2C9
:10099000E100A2104646BCD8253209494292945A39
:1009A0000800A3105F3E2C928A5468922AD22287B4
:1009B0002000A40F3F460CD941A2140B49240799EB
:1009C00000A50FD6420C1193844431894C4211008A
:1009D000A608D2438C43F010A70FD6421C8A884A3F
:1009E00011912454928402A80895620C094500A92B
:1009F000114F469C8A6C32A144689488644D520120
:100A0000AA09BD4E0CE221742DAB0E3F462C899EE7
:100A10002232894C229308AC082E468C433503AD14
:100A2000068D528C02AE124F469C8A6C3291A448BD
:100A3000264A929499A402AF068E6A0C03B00AA6C5
:100A40005A1C8A8824A100B10BBE462CA1C824944C
:100A5000430CB20AB4528C4944245122B30AB45212
:100A60008C49446D5201B4081C5F2C891200B50CEE
:100A70004F3A0C196F9583442A05B6165F3EAC0AAF
:100A80006514194546910825340946829160243839
:100A9000B70692530C02B8089C3AAC514402B9090B
:100AA000B4521CC9480B01BA09BD4E9C89CD322EE7
:100AB000BB0F3F460C894C2293C82421899E00BC61
:100AC0000E57421CE1545B453893C4A802BD0D5734
:100AD000421CE154B542910A5509BE1157428C613E
:100AE000442896454424E14C12A30ABF0FD6422C59
:100AF000A11C2694298A48120A00C00F57422CB123
:100B00001C38ABC868071A4D00C10F57423CA11CE6
:100B10003AABC868071A4D00C20F5742AC99440E51
:100B20009B5564B4038D26C31057422C49282207D5
:100B3000CE2A32DA814613C41057421C25891C364E
:100B4000ABC868071A4D00C5105F423C61282807F2
:100B5000CE2A32DA814613C61357429C03492292A9
:100B60008824228B924424114908C710673A9CCAF2
:100B700088AAEB48529485823200C80E57422CB1A5
:100B80001C74904A4B52E901C90E57423CA11C7695
:100B9000904A4B52E901CA0F5742AC99440E39486A
:100BA000A525A9F400CB0F57421C25891C72904A39
:100BB0004B52E901CC0B54430C999422D28500CDC1
:100BC0000B54432C899422D28500CE0C55439C892A
:100BD0002A49A6130500CF0C55430C09454A92E952
:100BE0004401D01047420C938AC8A224114944877B
:100BF0000800D11157422C49282207C94A164A84B5
:100C000062AA09D20D5F422CB11C5691F14D5201DE
:100C1000D30D5F423CA11C5891F14D5201D40E5F9F
:100C200042AC99440EAAC8F826A900D50F5F422C01
:100C30004928228755647C935400D60E5F421C25B8
:100C4000891C5491F14D5201D70D3F420C194D5260
:100C50009B55643401D813573EEC484554895022C3
:100C6000940825529254C200D90C57422CB11C242E
:100C7000E39BA402DA0C57423CA11C26E39BA4028E
:100C8000DB0D5742AC99440E91F14D5201DC0D57EA
:100C9000421C25891C22E39BA402DD0ED6423C7532
:100CA0008848120AD1849A00DE0D4F420CA945C62D
:100CB0007688485501DF1357422C928A48A2321198
:100CC00049442A228948A202E00F57422CB11C56FF
:100CD000961C624C938900E10F57423CA11C589628
:100CE0001C624C938900E2105742AC99440E2A4B87
:100CF0000E31A6C94400E31057422C49282287959B
:100D0000258718D36422E41057421C25891C549669
:100D10001C624C938900E5105F423C61282887954E
:100D2000258718D36422E60F3F421C5D6292484536
:100D3000492289A800E710573A9CCA88AA3A921417
:100D400065A1A00C00E80F57422CB11C5691D10EA2
:100D50005499A402E90F57423CA11C5891D10E545A
:100D600099A402EA105742AC99440EAAC86807AA8F
:100D70004C5201EB1057421C25891C5491D10E5442
:100D800099A402EC0A54430C9974A41702ED095477
:100D9000431CE5915E08EE0AD5429C89F24C4F0453
:100DA000EF0BD5420C09453CD31301F00E57421C02
:100DB000B51959748871935400F10E57422C492883
:100DC0002207499668BC09F20D57422CB11C569176
:100DD000F126A900F30D57423CA11C5891F126A918
:100DE00000F40E5742AC99440EAAC878935400F50B
:100DF0000F57422C492822875564BC492A00F60E19
:100E000057421C25891C5491F126A900F70CBE46B7
:100E10002CA11C6287084500F8114F3EEC48455450
:100E2000895022944849520903F90C57422CB11CAD
:100E300024E3D36422FA0C57423CA11C26E3D3647A
:100E400022FB0D5742AC99440E91F1693211FC0D11
:100E500057421C25891C22E3D36422FD10673A3CCB
:100E6000A11C26E3693291D2241500FE0F5F3A0CD3
:100E7000A9CA128DAD449948A500FF11673A1C25F7
:100E8000891C22E3693291D224150000000004FF7E
:100E9000FF000000000000240027002A00000000DE
:100EA00000250028002B0000000000230026002958
:100EB0000004040404040404040202020202020303
:100EC000030303030301020408102040800102040D
:100ED0000810200102040810200000000800020190
:100EE00000000304070000000000000000000000F4
:100EF000006410B71DC8206E3BAC30D9269041DC91
:100F000076F4516B6B5861B24D3C7105502083B83B
:100F1000ED44930FF0E8A3D6D68CB361CBB0C26496
:100F20009BD4D2D38678E20AA01CF2BDBD00002378
:100F300011241FBECFEFD8E0DEBFCDBF26E0A8E86A
:100F4000B3E001C01D92A13CB207E1F713E0A0E0BD
:100F5000B1E0E2E9FBE602C005900D92A838B107C6
:100F6000D9F717E0C8E9D7E004C02197FE010E9435
:100F70000830C739D107C9F70E94D0240C94C7356F
:100F80000C940000662329F06A3019F0862F90E057
:100F900008958FEF9FEF0895CF92DF92EF92FF9227
:100FA0000F931F93CF93DF93EC01842F8770E1E0C1
:100FB000F0E0082E01C0EE0F0A94EAF73E2F7E0102
:100FC00099E7E90EF11CD7019C9110E0923018F4DA
:100FD0001E2F913029F150E0487FE8ADF9ADC8806F
:100FE000D980D60150969C91949F6001959FD00C1A
:100FF00011246C0D7D2D711DDF01A60FB71F01118E
:1010000015C08C91812B83278D932150D1F7DF91CF
:10101000CF911F910F91FF90EF90DF90CF900895A7
:1010200030E0D9CF110F330F222389F39C91912BFC
:1010300093279C938F5F877021508111F3CF9CADD4
:10104000A90FB11DF7019081923028F4913009F079
:1010500031E011E0E9CF31E0E7CF80E0089580E0B2
:101060000895CF93DF93C9EDD5E08FAFEAADFBAD27
:101070000190F081E02D8DED95E00995EAADFBAD95
:101080000280F381E02D8DED95E0DF91CF91099401
:10109000CF92DF92EF92FF920F931F93CF93DF9344
:1010A00000D000D01F92CDB7DEB7C09017060091D8
:1010B0001806E091DD05F091DE05D188102FF12CA6
:1010C000E12CE091DD05F091DE0580892091150687
:1010D000309116061C821D838B8348E0849FC001DB
:1010E00011248E9DA0018F9D500D9E9D500D1124A9
:1010F000240F351F3A832983E091E105F091E20541
:101100009E012F5F3F4F41E06FE08DED95E0099527
:101110001F5F812F801B8C1528F48FEFE81AF80AC7
:101120001D1578F20F900F900F900F900F90DF9198
:10113000CF911F910F91FF90EF90DF90CF90089586
:10114000809356060895CF92DF92EF92FF92DC01D2
:101150009C012A5E3F4F4FEF5FEFBA019D91E92F4F
:10116000E427EF7084E0E89FF0011124E351F14F90
:10117000C590D590E590F49084E076956795579565
:1011800047958A95D1F74C255D256E257F25E92F5A
:10119000E295EF70E427EF7084E0E89FF0011124FE
:1011A000E351F14FC590D590E590F49094E0769599
:1011B0006795579547959A95D1F74C255D256E25EE
:1011C0007F252A173B0709F0C9CFCB01BA016095EB
:1011D000709580959095FF90EF90DF90CF90089557
:1011E0009B01DC011896ED91FC9141E067E10994C7
:1011F00020913F04260F3327331F21323105ECF4B1
:1012000020916504FC0190E080E0243069F082E0E8
:101210000895A0913F042191AC01435E5B4FA40F60
:10122000B52FB11D2C930196861798F380913F043A
:10123000680F60933F0480E0089581E00895089569
:1012400008950895E091140480911304E81730F490
:10125000F0E0ED50FC4F808190E008958FEF9FEF1C
:10126000089590911404809113042FEF3FEF981785
:1012700048F4E92FF0E0ED50FC4F208130E09F5F13
:1012800090931404C901089580911304909114045B
:10129000891B990B0895CF92DF92EF92FF920F93E3
:1012A0001F93CF93DF937C01CB018A012091F2033E
:1012B000222389F0EB016B01C40ED51ECC15DD0590
:1012C00069F06991D701ED91FC910190F081E02DD9
:1012D000C7010995F3CF642F0E94F808C801DF9178
:1012E000CF911F910F91FF90EF90DF90CF900895D5
:1012F000CF93DF931F92CDB7DEB769832091F203BE
:101300002223F9F020911504203258F021E030E03A
:10131000FC013383228390E080E00F90DF91CF9136
:10132000089580911604E82FF0E0EE52FC4F998169
:1013300090838F5F809316048093150481E090E082
:10134000ECCF61E0CE0101960E94F808F7CF833020
:1013500081F028F4813099F08230A9F00895873027
:10136000A9F08830C9F08430B1F4809180008F7D7D
:1013700003C0809180008F7780938000089584B5AA
:101380008F7784BD089584B58F7DFBCF8091B000A9
:101390008F778093B00008958091B0008F7DF9CF52
:1013A000CF93DF93282F30E0F901E752F14F84917A
:1013B000F901EB53F14FD491F901EF54F14FC4917E
:1013C000CC23A1F081110E94A709EC2FF0E0EE0FD1
:1013D000FF1FE955F14FA591B491EC91ED2381E008
:1013E00090E009F480E0DF91CF91089580E090E0F3
:1013F000FACF1F93CF93DF93282F30E0F901E75204
:10140000F14F8491F901EB53F14FD491F901EF546D
:10141000F14FC491CC23A9F0162F81110E94A70986
:10142000EC2FF0E0EE0FFF1FE356F14FA591B491C2
:101430008FB7F894EC91111108C0D095DE23DC939E
:101440008FBFDF91CF911F910895DE2BF8CFCF93FF
:10145000C82F60911501682785E00E94F909C093A3
:10146000D505CF910895CF92DF92EF92FF921F930F
:10147000CF93DF9310E0C7E0D0E083E2E82EF12CB9
:10148000CC24C394D12C60E08091D6050E94F90948
:10149000C7010197F1F78091D7050E94D009892BE8
:1014A00039F0C6010C2E01C0880F0A94EAF7182BF8
:1014B00061E08091D6050E94F909C7010197F1F713
:1014C000219708F7812FDF91CF911F91FF90EF9027
:1014D000DF90CF9008951092650481E080936704B7
:1014E0001092660461E082E10E94F90961E083E103
:1014F0000E94F909E9EBF0E080818E7F8083808192
:101500008D7F808388E48093B80085E48093BC005D
:101510000895CF93DF9391E090931C048823B9F052
:10152000C091B800D091BA008091BC008A7B8093B2
:10153000BC0060E082E10E94F90960E083E10E9462
:10154000F9090E946B0AD093BA00C093B800DF91EA
:10155000CF910895CF93DF9390E0FC01EB53F14FCF
:1015600024918F54914FFC0184918823C9F090E01D
:10157000880F991FFC01ED56F14FA591B491FC0124
:10158000E356F14FC591D49161110DC09FB7F89406
:101590008C91209582238C938881282328839FBF58
:1015A000DF91CF910895623051F49FB7F8943C9148
:1015B000822F809583238C93E8812E2BEFCF8FB7DA
:1015C000F894EC912E2B2C938FBFEACF3FB7F89471
:1015D0008091CE039091CF03A091D003B091D1031D
:1015E00026B5A89B05C02F3F19F00196A11DB11D7E
:1015F0003FBFBA2FA92F982F8827BC01CD01620FBA
:10160000711D811D911D42E0660F771F881F991F74
:101610004A95D1F708952FB7F8946091CA03709155
:10162000CB038091CC039091CD032FBF08954F92AF
:101630005F926F927F928F929F92AF92BF92CF9262
:10164000DF92EF92FF92CF93DF93CDB7DEB728976B
:101650000FB6F894DEBF0FBECDBF8091AE068823D3
:10166000E1F01092AE060E940B0B6093AA067093F5
:10167000AB068093AC069093AD061092880610924C
:10168000890610928A0610928B0610928C06109290
:101690008D0610928E0610928F06C0909006D09004
:1016A0009106E0909206F090930620E030E0A901C8
:1016B000C701B6010E94242E882309F449C0E09195
:1016C0009A06F0919B06A0919806B09199062D91EB
:1016D0003D914D915C9160817181828193810E94E5
:1016E0000E309B01AC01C701B6010E94242E87FF7A
:1016F0002FC08091A2069091A306A091A406B0915C
:10170000A506E0919C06F0919D0680839183A283BB
:10171000B3830E940B0B6093AA067093AB06809371
:10172000AC069093AD0628960FB6F894DEBF0FBEB8
:10173000CDBFDF91CF91FF90EF90DF90CF90BF9022
:10174000AF909F908F907F906F905F904F90089593
:10175000C0909406D0909506E0909606F09097067B
:1017600020E030E0A901C701B6010E94242E8823A1
:1017700019F1E0919806F0919906A0919A06B0911E
:101780009B062D913D914D915C916081718182818B
:1017900093810E940E309B01AC01C701B6010E94EB
:1017A000242E87FF09C080919E0690919F06A091EC
:1017B000A006B091A106A5CF0E940B0BC090AA066F
:1017C000D090AB06E090AC06F090AD064B015C010A
:1017D0008C189D08AE08BF088091A6069091A706B8
:1017E000A091A806B091A90688169906AA06BB067C
:1017F00008F499CF0E940B0B6093AA067093AB0676
:101800008093AC069093AD06E0919A06F0919B060A
:10181000A0919806B09199062D913D914D915C91C2
:1018200060817181828193810E940E306B017C0105
:1018300080918C0690918D06A0918E06B0918F06B6
:1018400089839A83AB83BC83C501B4010E94292E8E
:101850002B013C0129813A814B815C81C701B60192
:101860000E940F3020E030E040E05FE30E948A2ECB
:10187000A30192010E948A2E20E030E04AE754E45E
:101880000E947B30209188063091890640918A061B
:1018900050918B060E940F304B015C0180928806AC
:1018A00090928906A0928A06B0928B06C0928C060E
:1018B000D0928D06E0928E06F0928F0620917C06E3
:1018C00030917D0640917E0650917F06C701B6019A
:1018D0000E948A2E6D837E838F8398872091800655
:1018E000309181064091820650918306C501B40172
:1018F0000E948A2E9B01AC016D817E818F8198852B
:101900000E940F304B015C0129813A814B815C813F
:10191000C701B6010E940E30A30192010E947B30E4
:1019200020E030E04AE754E40E947B3020918406B6
:101930003091850640918606509187060E948A2E36
:101940009B01AC01C501B4010E940F304B015C0149
:10195000C0909E06D0909F06E090A006F090A10651
:101960009601A7010E94242E87FD12C0C090A206F6
:10197000D090A306E090A406F090A5069601A701DA
:10198000B401C5010E942331181614F064017501D9
:10199000E0919C06F0919D06C601D701808391835A
:1019A000A283B383C0CE20E030E0A9016091D105CD
:1019B0007091D2058091D3059091D4050E94233176
:1019C000181624F581E090E09093B0068093AF065E
:1019D0008093AE060E940B0B6093AA067093AB0631
:1019E0008093AC069093AD061092880610928906FB
:1019F00010928A0610928B0610928C0610928D0619
:101A000010928E0610928F060C94170B1092B0064F
:101A10001092AF061092BA061092B90681E0809338
:101A2000AE060E940B0B6093AA067093AB068093E0
:101A3000AC069093AD06109288061092890610921B
:101A40008A0610928B0610928C0610928D061092C8
:101A50008E0610928F061092B1061092B206109266
:101A6000B3061092B40680E00C94270ACF92DF925E
:101A7000EF92FF92C090D105D090D205E090D305AF
:101A8000F090D405609105017091060190E080E02E
:101A90000E94292E9B01AC01C701B6010E94242E91
:101AA00087FF16C020E030E040E85FE3C701B601E1
:101AB0000E940F306093D1057093D2058093D305B7
:101AC0009093D405FF90EF90DF90CF900C94D30CBF
:101AD000FF90EF90DF90CF900895CF92DF92EF923A
:101AE000FF92C090D105D090D205E090D305F09040
:101AF000D40520E030E0A901C701B6010E942331DE
:101B00001816B4F420E030E040E85FE3C701B60106
:101B10000E940E306093D1057093D2058093D30557
:101B20009093D405FF90EF90DF90CF900C94D30C5E
:101B3000FF90EF90DF90CF9008951092D105109212
:101B4000D2051092D3051092D4050C94D30CFC014D
:101B5000248135816217730720F480819181009779
:101B600029F41092B40384EB93E00895860F971F35
:101B700008950895AF92BF92CF92DF92EF92FF92B5
:101B80000F931F93CF93DF936C017B018B01040FA5
:101B9000151FEB015E01AE18BF08C017D10759F041
:101BA0006991D601ED91FC910190F081E02DC60183
:101BB0000995892B79F7C501DF91CF911F910F917D
:101BC000FF90EF90DF90CF90BF90AF900895FC0111
:101BD000538D448D252F30E0842F90E0821B930B92
:101BE000541710F0CF96089501970895FC01918D38
:101BF000828D981761F0A28DAE0FBF2FB11D5D963B
:101C00008C91928D9F5F9F73928F90E008958FEFDC
:101C10009FEF0895FC01918D828D981731F0828D90
:101C2000E80FF11D858D90E008958FEF9FEF0895E7
:101C3000FC01918D228D892F90E0805C9F4F821B4B
:101C400091098F73992708958BE994E00E94180EEB
:101C500021E0892B09F420E0822F089580E090E0B4
:101C6000892B29F00E94240E81110C940000089504
:101C7000FC01A48DA80FB92FB11DA35ABF4F2C9101
:101C8000848D90E001968F739927848FA689B789F8
:101C90002C93A089B1898C91837080648C93938DEF
:101CA000848D981306C00288F389E02D80818F7D92
:101CB00080830895EF92FF920F931F93CF93DF934A
:101CC000EC0181E0888F9B8D8C8D98131AC0E88978
:101CD000F989808185FF15C09FB7F894EE89FF8947
:101CE0006083E889F98980818370806480839FBFE5
:101CF00081E090E0DF91CF911F910F91FF90EF90E5
:101D00000895F62E0B8D10E00F5F1F4F0F731127F4
:101D1000E02E8C8D8E110CC00FB607FCFACFE8892F
:101D2000F989808185FFF5CFCE010E94380EF1CF71
:101D3000EB8DEC0FFD2FF11DE35AFF4FF0829FB7A3
:101D4000F8940B8FEA89FB8980818062CFCFCF9393
:101D5000DF93EC01888D8823B9F0AA89BB89E889D3
:101D6000F9898C9185FD03C0808186FD0DC00FB679
:101D700007FCF7CF8C9185FFF2CF808185FFEDCFF7
:101D8000CE010E94380EE9CFDF91CF9108950097E0
:101D900049F0FC0181E09191992329F09A30D9F71B
:101DA0008F5FF9CF80E00895DC011A96ED91FC91E8
:101DB00030E020E009941F93CF93DF93D0E5CFEF7D
:101DC00011E01093F60540E06D2F8DED95E00E9437
:101DD000D40E8091F6058170CC0FC82BDF5FD6350D
:101DE00081F78091F905803149F120F48823F1F0E1
:101DF000815021C0803271F18033D1F78091F70595
:101E00008C1322C01092F9052091F80586E091E02C
:101E1000C22781502C2F292321F4990F8111F9CF4A
:101E200086E0805BDF91CF911F9108958091F70547
:101E30008C1751F082E18093F90506C08091F70577
:101E40008C1304C01092F90580E0ECCFC093F80524
:101E500082E2F1CF8091F8058C13F4CF80E3EBCFD1
:101E6000DC011696ED91FC9130E020E040E069E164
:101E70000994DC011696ED91FC9130E020E040E001
:101E800068E109949A01DC011696ED91FC91462FC8
:101E900067E10994EF92FF920F931F93CF93DF9323
:101EA0001F92CDB7DEB77C018B01D8016C916731F1
:101EB00029F150F46531A0F40F90DF91CF911F917B
:101EC0000F91FF90EF9008956A3118F16E3FA1F7DE
:101ED000F8014181498369E2C7010E94D40E0BC019
:101EE000F80141814983D7011696ED91FC9130E0CC
:101EF00020E0C70109950E5F1F4FD7CFF801818100
:101F00008983AE014F5F5F4F61E0C7010E94420FBE
:101F1000F2CF0F5F1F4FD7011696ED91FC9130E085
:101F200020E040E0C7010995C0CF462FDC0116969E
:101F3000ED91FC9130E020E066E10994462FDC0150
:101F40001696ED91FC9130E020E065E10994EF9266
:101F5000FF920F931F93CF93DF93EC01042F79012E
:101F60006D3009F446C050F46B30C9F1693009F4A2
:101F70009FC06A3009F465C080E046C06E3009F445
:101F800052C06F3099F70E94390FF7011381110F7A
:101F9000110F110F6C89160F60E4CE010E949E0F85
:101FA000612F62956F706061CE010E949E0F612F5C
:101FB0006F70CE010E94950FF7016481606BCE01B6
:101FC0000E94950FF701408151816281660F660F73
:101FD000660FCE010E94420F0150A1F72EC06FE2A2
:101FE00071E0442311F06AE271E0CE010E944A0FD1
:101FF0000AC0411110C063E271E00E944A0FE881FB
:10200000F98182898C8B81E0DF91CF911F910F91B3
:10201000FF90EF9008956CE171E00E944A0FE88113
:10202000F9818389EFCF0E94390F61E8CE010E94C8
:102030009E0F602FCE010E94950FCE010E94300F9F
:10204000E2CFEA85FB8530E020E040E068E2CE01A7
:102050000995EE81FF8130E020E040E064E1CE01AF
:10206000099541E06BE4CE010E94D40EE881F9812C
:10207000448169E2CE010E94D40E40E06BE4CE01BF
:102080000E94D40EE881F981448169E2CE010E9468
:10209000D40E41E06BE4CE010E94D40EE881F981B8
:1020A000458169E2CE010E94D40E64E371E09DCFC8
:1020B00089E691E0998388831C8AA5CFDC01189674
:1020C000ED91FC9130E020E040E069E10994DC0111
:1020D0001896ED91FC9130E020E040E068E1099431
:1020E000CF93DF931F92CDB7DEB76983BE016F5FD9
:1020F0007F4F0E94F0080F90DF91CF910895EF92EB
:10210000FF921F93CF93DF93EC01162F7A010E9469
:10211000671060E4CE010E947010E885F985970190
:10212000412F67E1CE010995CE01DF91CF911F913B
:10213000FF90EF900C945E10EF92FF921F93CF935D
:10214000DF93EC01142F7901663181F138F46431A9
:1021500009F44BC0653179F080E022C06831C9F1E3
:1021600050F16931C9F78091B303882391F1CE0111
:102170000E945E102EC08091B303882319F0CE0117
:102180000E945E10CE010E94671060E0CE010E94A6
:102190007010612FCE010E94701081E08093B30314
:1021A000DF91CF911F91FF90EF900895642F0E94CF
:1021B000701081E0F5CF8091B303882319F0CE0130
:1021C0000E945E10A701193138F4612FCE010E94E0
:1021D0007F101092B303EDCF68E1CE010E947F1013
:1021E000185188E1E80EF11CEDCF8E898F3F11F474
:1021F00088E78E8BE885F9859701412F64E1CE0150
:10220000DF91CF911F91FF90EF900994FC0166231D
:10221000D9F16A30C9F1808D811125C06C3F48F039
:1022200085E0808F617070E0738B628B2EEF3FEFE3
:1022300029C0683F20F084E0808F6370F4CF603F56
:1022400020F083E0808F6770EECF603E20F082E068
:10225000808F6F70E8CF262F30E0603C98F081E0EF
:10226000808F6F71E0CF8150808F2289338996E013
:10227000220F331F9A95E1F76F73262B338B228B36
:102280008111D4CFC90108952FEF3FEFFBCF0F93FA
:10229000DC01DE963C91DE97431BD496ED91FC91D8
:1022A00009950F910895CF93DF93FC01A081B1812F
:1022B00082AD982F990F990F990F95AF50969C91D9
:1022C0005097903208F09FE1990F990F990F94AFB2
:1022D00023AD922F990F990F990F96AF51963C917C
:1022E0005197682F620F7727771F3617170614F458
:1022F000832F821B97AFEF01C05CDF4F880F880FE1
:10230000880F890F8883219680EF888354968D915A
:102310009C915597813F910508F48883EE5BFF4FB0
:1023200056968C918083DF91CF9108950F93FC0195
:10233000EB5BFF4F308131965081451730F43017F9
:1023400038F0041728F080E013C03017D0F3FBCF2B
:10235000FC01ED5BFF4F30818C5B9F4FFC01808166
:10236000681740F481E0321718F081E0261758F71B
:102370000F9108953217C8F3E6CF2F923F924F92F4
:102380005F926F927F928F929F92AF92BF92CF9205
:10239000DF92EF92FF920F931F93CF93DF93EC01A5
:1023A0004C0183E4880E911CF40110823297208046
:1023B0005E01F4E4AF0EB11CF50120823FAC6E016A
:1023C000F5E4CF0ED11CF6013082359740807E01B6
:1023D000F6E4EF0EF11CF70140823496108132973B
:1023E00060803196708032975080012F262D472DC6
:1023F000652DCE010E949611CD58DF4F811114C07A
:102400001882DF91CF911F910F91FF90EF90DF9095
:10241000CF90BF90AF909F908F907F906F905F9084
:102420004F903F902F90089581E08883552011F0C0
:10243000F4015082621410F4F5016082371410F434
:10244000F60170821415E8F6F7011083DACF0F93C6
:10245000DC01802FFD01ED58FF4F90819923E9F1B8
:102460002223D9F1223020F0023079F56F5F621B10
:10247000082F0170FD0180FD32C0EB5BFF4F8081B2
:10248000481758F131968081481738F53297908176
:1024900031978081260F2617F0F46917D8F42FEFB3
:1024A000290F8217D0F4681708F4682F291708F449
:1024B000922F961BD696ED91FC91D7970480F581CB
:1024C000E02D292FCD01099508C0033089F64F5F13
:1024D000421BCECF682F691720F30F910895ED5B53
:1024E000FF4F80816817C8F3319680816817A8F77D
:1024F0003296908131978081240F241778F4491700
:1025000060F42FEF290F821740F7481708F4482F7F
:10251000291708F4922F941BCDCF482F4917E8F6BE
:10252000F2CFFF920F931F93CF93DF93182FC62FF5
:10253000F42ED62FD20F282F240F0D2F462F682FC1
:102540008DED95E00E94961181110FC0DF91CF9122
:102550001F910F91FF90089500E02F2D4C2F612FB8
:102560008DED95E00E942712CF5FDC13F5CFEECF03
:10257000213039F020F0223031F0840F0895860F99
:102580000895841B0895861B0895213039F020F0AA
:10259000223031F0861B0895840F0895860F089528
:1025A000841B08955F926F927F928F929F92AF9259
:1025B000BF92CF92DF92EF92FF920F931F93CF9330
:1025C000DF935C01162F642EEC01C15BDF4FDC80D2
:1025D000ED804C0189E7880E911CFE80FD18C12E0C
:1025E000F11608F4CF2C5B800C85202F4E2D6D2D1D
:1025F0008A810E94B812782E202F4E2D6D2D852DA8
:102600000E94C512482F662071F08A85F4018083EC
:102610002C2D672DC5010E9427121F1548F01F1988
:10262000E394D12CDACF89858111F7CF8B85EECF5A
:102630001D0D1C83ED82DF91CF911F910F91FF90B3
:10264000EF90DF90CF90BF90AF909F908F907F9052
:102650006F905F900895DC0118964C911897ED915A
:10266000FC911197249130E0042E02C035952795F6
:102670000A94E2F7842F860F883068F0319611961D
:10268000FC93EE93E49198E0941B01C0EE0F9A95B1
:10269000EAF72E2B885018968C938FEF9FEF01C08E
:1026A000880F6A95EAF78095822308950F931F9308
:1026B000CF93DF938C01EC01C15BDF4F798368839B
:1026C0001886FC01E05AFF4F6081CE010E942B1357
:1026D0008E83F801EF59FF4F6081CE010E942B13CA
:1026E0008F83F801E758FF4F90819A8781E091111D
:1026F00080E08B87DF91CF911F910F910895CF9349
:10270000C62F0E942B13C15021E030E001C0220FE0
:10271000CA95EAF7821BCF910895FC01E60FF11DDF
:10272000849190E0982F88273196E4918E0F911D27
:102730000895CF93DF93209128063091290628171A
:10274000390709F490C0EC0190932906809328067C
:10275000FC018491809339063196E491E0933A0626
:10276000FE013296E491E0933B06FE013396E4913C
:10277000E0933C06FE013496E491E0933D06FE01B1
:102780003596E491E0933E06FE013696E491E0939F
:102790003F06FE013796E491E0934006FE0138962D
:1027A000E491E0934106FE013996E491E0934206FC
:1027B000FE013A96E491E0934306FE013B96E491D4
:1027C000E0934406FE013C96E491E0934506FE0149
:1027D0003D96E491E0934606FE013E96E491E09337
:1027E0004706FE013F96E491E0934806FE0170968D
:1027F000E491E093490661E1CE010E948D1390932C
:102800004B0680934A0663E1CE010E948D1390939C
:102810004D0680934C0665E1CE010E948D13909386
:102820004F0680934E068091280690912906892BA9
:10283000D1F080914606809352064091470640931E
:10284000530690915106992371F0913079F490914B
:102850004806891714F4909352068091490684170C
:1028600014F480935306DF91CF910895309143067D
:1028700020914506082E000C990B622F022E000CA9
:10288000770B630F711D37FD7A95861797071CF438
:10289000320F30935206241734F720935306E3CFB8
:1028A000EF92FF920F931F93CF93DF93FC01E55BB1
:1028B000FF4F20813181295E3F4F6F3F710509F045
:1028C00048F561367105D8F081599F4FFC01808130
:1028D0009181280F391FC9010196FC0144914423BD
:1028E00009F447C0F90144914617170671F401969F
:1028F000DF91CF911F910F91FF90EF900895613478
:10290000710548F383599F4FE1CFFC018491280F53
:10291000311DE1CF8B01FC01EF58FF4FC081D18108
:10292000C20FD31F7E0160E0C7010E948D13C80F44
:10293000D91F62E0C7010E948D13F4E0EF0EF11C75
:102940008017910780F3FE01849190E0982F8827EB
:102950003196E4918E2B009761F00817190719F44E
:10296000CE010396C5CFFE013296E491CE0FD11D64
:10297000EACF90E080E0BCCFEF92FF921F93CF931D
:10298000DF93109232061092F5057C01D0EC10E036
:10299000C0E0F70161917F01E091DF05F091E00572
:1029A0008DED95E009958F3F980769F18E3F2FEFE8
:1029B000920779F3BC018DED95E00E9450140097C9
:1029C00001F1BC018DED95E00E94561360913F0628
:1029D0008CE296E00E947F1380935406609140063B
:1029E0008CE296E00E947F13609141068CE296E0B3
:1029F0000E947F13182FD03C11F4D0915406C80FB9
:102A0000C8CF80E0F7CF80913206882341F09091C3
:102A10005406890FC80FC11B1D160CF4CD0F8C2F47
:102A2000DF91CF911F91FF90EF9008958F929F9229
:102A3000AF92BF92CF92DF92EF92FF920F931F93CC
:102A4000CF93DF93EC01062F142F7901FC01E55A97
:102A5000FF4F8081813009F46CC008F460C082307F
:102A600009F471C0833009F478C0FE01EF5AFF4FBA
:102A7000008331961083B701CE010E945014009755
:102A800009F4D5C07E012FE4E20EF11CBC01CE0199
:102A90000E945613FE01EA5AFF4FC0803C966081A7
:102AA000C7010E947F13982EFE01ED59FF4F6081F0
:102AB000C7010E947F13B82EFE01EC59FF4F6081C1
:102AC000C7010E947F13A82EF701068110160CF093
:102AD00086C0D484BC0CB1942D2D4B2D692D8281E0
:102AE0000E94B812182FF70182832D2D4B2D692DCE
:102AF00083810E94C512482FF7018383F1E0DF161E
:102B000009F47BC0DF1698F122E0D21609F47BC0ED
:102B100083E0D81609F482C0042F212F2CC0FE01B7
:102B2000E35BFF4F0190F081E02DCE010995180F76
:102B30009CCFFE01E35BFF4F0190F081E02DCE01C1
:102B40000995081B92CFFE01E35BFF4F0190F081D6
:102B5000E02DCE010995181B88CFFE01E35BFF4FE6
:102B60000190F081E02DCE010995080F7ECF202F36
:102B7000210F0C2D080F612FCE010E949611882382
:102B800071F1F701148215828E01025A1F4F4E0116
:102B9000FFE58F0E911CF8016081C7010E942B1385
:102BA000B82EF4016081C7010E942B13D82E40E09B
:102BB0006B2DCE010E94D21241E06D2DCE010E94FC
:102BC000D21261E0C7010E942B138111F0CFF701EF
:102BD00085818C1504F3C758DF4F828588838A2D41
:102BE000DF91CF911F910F91FF90EF90DF90CF90E9
:102BF000BF90AF909F908F900895DC1821E0210F37
:102C0000080F1D0DB8CF81E0982F901B21E0210FF8
:102C10008C1901E0040F480F190FADCF2C2D210F97
:102C2000842F801B01E0040F41E0480FA4CF80E017
:102C3000D7CFFF920F931F93CF93DF93C82FD62F39
:102C40001092F5058A01F12CF80161918F01E09154
:102C5000DF05F091E0058DED95E009958F3F980730
:102C6000F1F08E3F2FEF920779F39C014D2F6C2FDF
:102C70008DED95E00E94161590913806913049F03F
:102C800030F0923041F0933041F0F80EDDCFC80FB4
:102C9000FCCFD80FFACFC81BF8CFD81BF6CF8F2D9B
:102CA000DF91CF911F910F91FF9008952F923F9246
:102CB0004F925F926F927F928F929F92AF92BF924C
:102CC000CF92DF92EF92FF920F931F93CF93DF93F8
:102CD00000D01F92CDB7DEB7D82EA62E498349016A
:102CE00010923806E0912A06F0912B068DED95E0C2
:102CF0000995A80E86E091E19093E0058093DF05A9
:102D0000C4010E94BC14782E8981B12C781620F45D
:102D1000B82EB718B694782E909152068A2D891B3A
:102D20008A8380915306981B9B8381E00E94A008B0
:102D3000EE2031F02B81472D6A818D2D0E9491125A
:102D400011E01D0D170D9A81901B998366246A94DA
:102D50006D0C8A81681A572C9B81591A539453948D
:102D6000C92ECD18C80EC718F92EFA94FD18F80E02
:102D7000F7189A81898198132AC080E0E11001C078
:102D800081E00E94A00886E091E19093E0058093A5
:102D9000DF05A4016A2D8D2D8B0D0E94191681E08F
:102DA0000F900F900F90DF91CF911F910F91FF9097
:102DB000EF90DF90CF90BF90AF909F908F907F90DB
:102DC0006F905F904F903F902F900C94A0087A8066
:102DD000760C4A804A942B80250C3B8033943394A4
:102DE0000C2D010F212F442D672D8DED95E00E94B4
:102DF0009611882349F100E0222D442D672D8DED99
:102E000095E00E94271281E08315F0F49B819923BD
:102E100099F001E0292F4A81672D8DED95E00E9400
:102E200027122B814A816FEF610F8DED95E00E9493
:102E300027128F2D810F8A8300E0222D4A81672D72
:102E40008DED95E00E9427121F5F3B824A8291CF51
:102E5000BF92CF92DF92EF92FF920F931F93CF9387
:102E6000DF93D82FB62ED42E122FF32E822F932F2E
:102E70000E94C70EC82EC0E0CC120DC0CD9C802D84
:102E80001124DF91CF911F910F91FF90EF90DF9070
:102E9000CF90BF900895212F3F2DCC2379F0E12FC3
:102EA000FF2D81E09191992339F09F019A30D1F75C
:102EB000C81721F08F5FF6CF20E030E0E12C00E072
:102EC0004B2D6D2F80E00E945616DD0DCF5FD4CFC5
:102ED000EF920F93CF93C0915206CF5F909153061C
:102EE000C91B01E0841300E0442381F0F90181E073
:102EF0009191992349F09F019A30D1F7481711F029
:102F00008F5FF6CFEF2B11F429EB31E040911E06D5
:102F10004250E02E81E00E9456168C2FCF910F91E7
:102F2000EF900895CF92DF92EF92FF920F931F934D
:102F3000CF93DF93EC01962F683109F44BC0B901B0
:102F4000993130F49431C9F0973189F080E006C0AE
:102F5000993109F461C09032C9F781E0DF91CF91D6
:102F60001F910F91FF90EF90DF90CF90089550E068
:102F70008FE894E00E944B09F0CF8C859D85AE854B
:102F8000BF85892B8A2B8B2B71F4E881F981A5856C
:102F9000B0E020EA36E841E050E00E94612F6C8703
:102FA0007D878E879F8710921404109213041092CD
:102FB0001604109215040E946B0A8FE199E0909319
:102FC0003E0480933D0480E299E090934204809314
:102FD0004104C3CF2C853D854E855F8560E074E25A
:102FE00084EF90E00E94D22F20513109410951090C
:102FF00056954795379527952093B8008E8990E090
:103000009595879591E09093F2038093B203109287
:10301000160410921504A1CFD0911504D13208F0F6
:1030200093C0C091B2030E94E60A6B017C018091BB
:103030006504811164C082E08093650481E080931F
:1030400067048FEF8093640410928904D0938804FE
:10305000A2EDB3E0E8E6F4E080E0D8137CC0109283
:103060008A0480918A04CC0FC82BC0938A04809173
:103070006604813009F073C0109266040E94E60A6B
:103080006B017C0180918A048093BB0080911804BD
:1030900090911904A0911A04B0911B04892B8A2BDA
:1030A0008B2B99F00E94E60A0091180410911904E4
:1030B00020911A0430911B046C197D098E099F0917
:1030C0000617170728073907D8F18091BC0083FD40
:1030D000D9CF85EC8093BC000E94E60A6B017C018D
:1030E000809165048230E9F1809164048F3F61F141
:1030F00080916404803241F18091640425C0809104
:10310000180490911904A0911A04B0911B04892B02
:103110008A2B8B2B09F48BCF0E94E60A00911804AE
:103120001091190420911A0430911B046C197D0927
:103130008E099F09061717072807390708F077CF68
:10314000809117040E94890A1092160410921504A7
:103150001092F20302CF9D9191938F5F7ECF85EE07
:10316000B9CF8091180490911904A0911A04B091DC
:103170001B04892B8A2B8B2B09F4B2CF0E94E60A01
:10318000009118041091190420911A0430911B0425
:103190006C197D098E099F0906171707280739073B
:1031A00008F09ECFCDCF8F929F92AF92BF92CF92D9
:1031B000DF92EF92FF92CF93DF937C01C62F6C32A8
:1031C000B0F46A32E8F5683249F1693209F444C072
:1031D00080E0C034B0F1CF73F701EC0FF11D868DA4
:1031E0008F3F71F1C03108F06DC0642F14C06D3293
:1031F00009F456C068F384EB860F823048F7CF732A
:10320000CE0DDF2DD11D8E8D411158C061E00E9481
:10321000AA0A60E08E8D0E94F90912C02EE1E20E2A
:10322000F11CD0E0F70181917F018F3F31F061E027
:10323000D03108F062E00E94AA0ADF5FD63191F730
:1032400081E0DF91CF91FF90EF90DF90CF90BF9022
:10325000AF909F908F900895C42ED12CF12CE12C2B
:103260000E94E60A4B015C01C114D104E104F1049F
:1032700039F30E94E60A681979098A099B09683EB0
:1032800073408105910580F3F1E0CF1AD108E10880
:10329000F10828EE820E23E0921EA11CB11CE4CF9F
:1032A00085E090E0433010F082E090E0880F991FB5
:1032B000880F991F05970197F1F7C2CF62E00E942E
:1032C000AA0ABECF0E94D00921E0892B09F420E090
:1032D000F701218FB5CF81E090E090937B0680933A
:1032E0007A060895CF92DF92EF92FF920F931F9389
:1032F000CF93DF936C01EB017B01E40EF51E10E030
:1033000000E0CE15DF0561F06991D601ED91FC91E9
:103310000190F081E02DC6010995080F191FF1CF2A
:10332000C801DF91CF911F910F91FF90EF90DF9037
:10333000CF900895CF92DF92EF92FF920F931F9359
:10334000CF93DF93EC016C0124E0C20ED11CFC0191
:10335000E158FF4F0190F081E02DC60109958E3FA5
:10336000EFEF9E07C8F48E010E571F4F7E01F1E864
:10337000EF0EF11C9C01F8014081F7016081C6014C
:103380000E941615C15ADF4F98819130A9F078F04C
:103390009230A1F09330B9F081E090E0DF91CF91CD
:1033A0001F910F91FF90EF90DF90CF900895F7015C
:1033B0009081890F8083F0CFF801FACFF7019081D7
:1033C000981B892FF7CFF801FACF90E080E008959D
:1033D000E9EDF5E0A481B58150962C9186AD38E0F9
:1033E000839FC0011124289FA001299F500D112403
:1033F00070E060E084AD95AD0C941833CF930E94DB
:103400004808C091180680911706C80FE091DD05A5
:10341000F091DE058189C81770F0E091E105F09127
:10342000E20530E020E040E060E18DED95E00995B7
:1034300080E0CF9108958091570681110E94E8198C
:103440008C2F0E94310881E0F4CF809157068111C2
:103450000E94E81980E00C9431080E94251A0E940D
:10346000FE198111FCCF0C9431082F923F924F929C
:103470005F926F927F928F929F92AF92BF92CF9204
:10348000DF92EF92FF920F931F93CF93DF9300D0C1
:1034900000D0CDB7DEB75C014B013A012983FA01B8
:1034A0004080109238068FE298E090932B0680932C
:1034B0002A069091520680915306192F181BC501B8
:1034C0000E94C70EF12F819FF00D112450901F060E
:1034D000F51508F053C05F1A569486E091E1909379
:1034E000E0058093DF05C4010E94BC14D82EE6E0FD
:1034F000F1E1F093E005E093DF058CE692E00E94B5
:10350000BC14C82E86E091E19093E0058093DF051E
:10351000C7010E94BC148D0DC09E800D11243090F7
:103520001E06831568F5381A369486E0C82E81E1A8
:10353000D82E93E0901BE92FF0E0E557FB4FFC837A
:10354000EB830E94251A9501412F60911E06852D5F
:103550000E942817052D080FD092E005C092DF05C4
:10356000A401602F832D0E941916232C280E842D70
:1035700090E3843638F084569F5FFBCF512CADCF5B
:10358000312CD3CF90938B0490E38A3018F08A507B
:103590009F5FFBCF90938C0490E381113BC090938D
:1035A0008D0410928E04D092E005C092DF054B810D
:1035B0005C81602F822D0E941916D092E005C09286
:1035C000DF05A701602F820D0E9419160E94FE19C7
:1035D000082F8111B8CF0E94DB0E8035F1F4F30182
:1035E000408201E0802F0F900F900F900F90DF919D
:1035F000CF911F910F91FF90EF90DF90CF90BF90F0
:10360000AF909F908F907F906F905F904F903F9082
:103610002F90089581509F5FC0CF833519F3813576
:1036200011F0843539F4F9814F1610F401E0040DDE
:10363000402E87CF823511F0853569F60981442007
:10364000B9F30FEFF4CF4F925F926F927F928F9208
:103650009F92AF92BF92CF92DF92EF92FF920F9321
:103660001F93CF93DF937C01C62F6A01909052067F
:10367000939480915306981AC7010E94C70E682E32
:10368000C15080911F06662009F460C08350990BD9
:10369000692D70E00E94BE2F862E8618C6010E94FA
:1036A000C70E782EC81710F0CFEFC80FA82CB12C7A
:1036B0001C2F18191F5FC81508F410E08FE298E05E
:1036C00090932B0680932A065524539444244A94BD
:1036D000470C0E94251AD09152066620B9F0970136
:1036E000492D60911E068D2F0E942817D80F8091BA
:1036F0005306452D481B49194D0F00E020911E0629
:1037000060E08DED95E00E942712DD5F00E0801201
:1037100025C00E94FE19D82F8111DDCF0E94DB0E3B
:10372000803531F5D1E0DC0F8D2FDF91CF911F91E6
:103730000F91FF90EF90DF90CF90BF90AF909F9050
:103740008F907F906F905F904F900895692D0E94A9
:10375000B22F882EA3CFC0E01D2FBBCF402F410F2B
:1037600096016D2F8C2F0E946817D80F0F5FCFCF57
:103770008335D1F2982F9B7F913589F4CF5FC715A0
:1037800050F78C2F90E001969501210F311DD52D1A
:10379000D01BDC0F82179307FCF6D12FDDCF8235CB
:1037A00019F0843509F0BACFC11107C0C42DD72D47
:1037B000D01B071588F2D0E0CFCFC150DC2F1C17EB
:1037C00058F6EBCFFC0101900020E9F73197AF01EB
:1037D000481B590BBC018BE994E00C94BA0D8F92F5
:1037E0009F92AF92BF920F931F93CF93DF93CDB76A
:1037F000DEB7A1970FB6F894DEBF0FBECDBF19A2FA
:10380000423008F44AE08E010F5D1F4F842E912C48
:10381000B12CA12CA50194010E94D22FE62FB90151
:10382000CA01EA30F4F4E05DD801EE938D01232B58
:10383000242B252B79F790E080E0109719F0CD012B
:103840000E94E21BA1960FB6F894DEBF0FBECDBF5B
:10385000DF91CF911F910F91BF90AF909F908F906C
:103860000895E95CE1CFCF92DF92EF92FF92CF9380
:10387000DF936B017C016DE28BE994E00E945A0EAC
:10388000EC0166277727CB016C197D098E099F090A
:103890004AE00E94EF1B8C0F9D1FDF91CF91FF909C
:1038A000EF90DF90CF900895CF93DF9340E10E9497
:1038B000EF1BEC0187EB91E00E94E21B8C0F9D1F38
:1038C000DF91CF9108954F925F926F927F928F9286
:1038D0009F92AF92BF92CF92DF92EF92FF920F939F
:1038E0001F93CF936B017C01742EAC019B010E944E
:1038F0002831882399F08AEB91E0CF911F910F91A5
:10390000FF90EF90DF90CF90BF90AF909F908F90FF
:103910007F906F905F904F900C94E21B460157018F
:10392000E894B7F82FEF3FEF4FE75FE7C501B40129
:103930000E94283181110DC02FEF3FEF4FE75FE765
:10394000C501B4010E94242E18161CF48EEB91E0E0
:10395000D4CF2FEF3FEF4FE75FE4C701B6010E94DE
:10396000233118161CF482EC91E0C7CF2FEF3FEF04
:103970004FE75FECC701B6010E94242E87FDF3CF0D
:1039800020E030E0A901C701B6010E94242E10E01A
:1039900000E087FF0AC06DE28BE994E00E945A0EB6
:1039A0008C01F7FAF094F7F8F094C0E060E070E072
:1039B00080E09FE37C1641F020E030E040E251E4FB
:1039C0000E947B30CF5FF6CFA70196010E940F3097
:1039D0002B013C010E94F4304B015C014AE00E9443
:1039E000EF1B7C01E00EF11ECC23C1F1C501B40137
:1039F0000E94292E9B01AC01C301B2010E940E302E
:103A00004B015C016EE28BE994E00E945A0EE80ED5
:103A1000F91EC15018F120E030E040E251E4C50148
:103A2000B4010E948A2E2B013C010E94F4304B010C
:103A3000B12CA12C4AE0C501B4010E94EF1BE80E95
:103A4000F91EC501B4010E94292E9B01AC01C301DE
:103A5000B2010E940E304B015C01DBCFC701CF9158
:103A60001F910F91FF90EF90DF90CF90BF90AF909C
:103A70009F908F907F906F905F904F90089585ED0D
:103A80008093BC008091180490911904A0911A04AD
:103A9000B0911B040796A11DB11D23E0B695A79513
:103AA000979587952A95D1F72091BC0024FD03C0F6
:103AB0001092650408954091180450911904609182
:103AC0001A0470911B04452B462B472B69F3009772
:103AD000A105B10541F025E32A95F1F70000019712
:103AE000A109B109E1CF809117040C94890ACF9202
:103AF000DF92EF92FF920F931F93CF93DF93CDB797
:103B0000DEB76A970FB6F894DEBF0FBECDBF81E077
:103B10008D8328E833E13F832E8328EC30E039871A
:103B200028872CE231E03B872A8740E050E06CE8B0
:103B300072E44C875D876E877F87188A198A1A8A94
:103B40001B8A1C8A1D8A1E8A1F8A9EE1988F95E017
:103B5000998F8A8FCE0101967C0110E000E0C801A8
:103B60000E944B2FF70181937F010F5F1F4F0A3196
:103B70001105A9F7CE0105960E94A3086B017C01EF
:103B800086EC91E00E94E21B69817A818B819C81A5
:103B900040E10E94EF1B83ED91E00E94E21BC70110
:103BA000B6010E94541C89819A81AB81BC818C151D
:103BB0009D05AE05BF0549F486E1FE013596A0E0FE
:103BC000B1E001900D928A95E1F780E091E00E94CA
:103BD000A3086B017C0180EE91E00E94E21BC7010B
:103BE000B6010E94541C6A960FB6F894DEBF0FBE51
:103BF000CDBFDF91CF911F910F91FF90EF90DF909C
:103C0000CF9008950F931F93CF93DF938C01EB0117
:103C1000FC01808191810097E1F0688179816115D3
:103C20007105A9F0428153812C813D8142175307D0
:103C300070F00E941F338C819D81F80195838483ED
:103C40001D821C82DF91CF911F910F9108950E94D8
:103C5000C93188819981F801918380838A819B8110
:103C6000938382838C819D819583848319821882BA
:103C70001B821A82E5CFCF93DF93EC018881998173
:103C8000009711F00E94C931198218821D821C828E
:103C90001B821A82DF91CF910895FC01808191816E
:103CA000009711F00C94C93108950F931F93CF938F
:103CB000DF93EC0188819981009759F02A813B813B
:103CC0002617370730F081E0DF91CF911F910F91D8
:103CD00008958B016F5F7F4F0E945232009759F019
:103CE000998388831B830A832C813D81232B59F779
:103CF000FC011082E8CF80E0E7CFEF92FF920F93B4
:103D00001F93CF93DF938C017B01EB01099000207F
:103D1000E9F72197C61BD70BBE010E94551E8111E2
:103D200009C0C801DF91CF911F910F91FF90EF90D3
:103D30000C943B1EF801D583C483B7018081918127
:103D4000DF91CF911F910F91FF90EF900C941F3353
:103D5000EF92FF920F931F93CF93DF93611571053D
:103D600041F480E0DF91CF911F910F91FF90EF9090
:103D7000089541155105B1F07B01EC010C811D81C5
:103D8000040F151FB8010E94551E882351F3288186
:103D900039818C819D81B701820F931F0E941F334F
:103DA0001D830C8381E0DECFFB0101900020E9F749
:103DB0003197AF01461B570B0C94A81EEF92FF9250
:103DC0000F931F93CF93DF9300D000D000D01F92AA
:103DD000CDB7DEB77C01CB014AE08E010F5F1F4FEC
:103DE000B8010E94522AF80101900020E9F73197AA
:103DF000AF01401B510BB801C7010E94A81E2796B6
:103E00000FB6F894DEBF0FBECDBFDF91CF911F91EB
:103E10000F91FF90EF900895EF92FF920F931F93F1
:103E2000CF93DF93EC017B01198218821B821A82E7
:103E30001D821C82FB0101900020E9F731978F0160
:103E4000061B170BB8010E94551E811109C0CE0137
:103E5000DF91CF911F910F91FF90EF900C943B1E3B
:103E60001D830C83B70188819981DF91CF911F91C8
:103E70000F91FF90EF900C941F33AF92BF92CF92AF
:103E8000DF92EF92FF920F931F93CF93DF936C011A
:103E90005B017A0189012417350720F48F2D790100
:103EA000042F182F69EB71E0C6010E940C1FD50189
:103EB0001496CD91DC91EC16FD06E0F40C171D076D
:103EC00008F4E801D501ED91FC911197EC0FFD1F6D
:103ED000108110826D917C916E0D7F1DC601611560
:103EE0007105A1F00E947D1EF50180819181C80FAE
:103EF000D91F1883C601DF91CF911F910F91FF90B9
:103F0000EF90DF90CF90BF90AF9008950E943B1E3E
:103F1000EBCF5F926F927F928F929F92AF92BF9200
:103F2000CF92DF92EF92FF920F931F93CF93DF9385
:103F3000CDB7DEB76E970FB6F894DEBF0FBECDBF1C
:103F40003C014B0169EB71E0CE0143960E940C1FCE
:103F500069EB71E0CE010D960E940C1F69EB71E0D8
:103F6000CE0107960E940C1FF401C080D180E28030
:103F7000F38020E030E0A901C701B6010E94242EA1
:103F80008111A6C06CE672E0CE0143960E94D41E59
:103F90006CE672E0CE0143960E94D41E6CE672E09D
:103FA000CE0143960E94D41E63E272E0CE01439696
:103FB0000E94D41E6CE672E0CE0143960E94D41E8D
:103FC00010E080E3582EC12ED12C8F89988DC81611
:103FD000D90608F097C0B601CE0143960E94A70DFE
:103FE000FC0180818E3209F471C0B601CE01439686
:103FF0000E94A70DFC018081803239F4B601CE0108
:1040000043960E94A70DFC015082B301CE010D968C
:104010000E947D1E960150E040E0BE016D5E7F4F24
:10402000CE0101960E943D1F4D815E8169817A819A
:10403000CE010D960E94A81ECE0101960E944D1E33
:1040400063EF71E0CE010D960E94D41EB601CE0141
:1040500043960E94A70DFC0180818F708E8F65EFC3
:1040600071E0CE0107960E947D1E2F89388D412F69
:1040700050E04F5F5F4FBE016D5E7F4FCE010196F6
:104080000E943D1F4D815E8169817A81CE01079634
:104090000E94A81ECE0101960E944D1EEF80F8845A
:1040A0006D857E8501E029E0AE01425E5F4F87EFBE
:1040B00091E00E94351A882381F10E8D005DB601D2
:1040C000CE0143960E94A70DFC0100831F5F7BCFAA
:1040D0008E01075E1F4F21E045E0C701B6010E9437
:1040E000302AB801CE0101960E940C1FBE016F5FFD
:1040F0007F4FCE0143960E94021ECE0101960E9480
:104100004D1E5ECF8B899C89009771F10E944E2ACB
:10411000F4016083718382839383CE0107960E94AA
:104120004D1ECE010D960E944D1ECE0143960E945B
:104130004D1E0FB6F894DEBF0FBECDBF6E960FB604
:10414000F894DEBF0FBECDBFDF91CF911F910F91CD
:10415000FF90EF90DF90CF90BF90AF909F908F90A7
:104160007F906F905F90089560E070E0CB01D0CFBA
:104170001F920F920FB60F9211242F933F934F93DC
:104180005F936F937F938F939F93AF93BF93EF93BF
:10419000FF938091B900887F803609F44AC0F0F51A
:1041A000883209F4A7C018F5803109F49BC0B8F42F
:1041B000882309F4F9C0883009F494C0FF91EF9185
:1041C000BF91AF919F918F917F916F915F914F912F
:1041D0003F912F910F900FBE0F901F90189588312F
:1041E00009F488C0803251F78093640414C080348D
:1041F00009F49DC040F48033B9F38833F9F6809315
:10420000640485ECB0C0803509F485C0883509F4B4
:1042100096C0883499F60E943F1DD0CF883909F4A2
:104220008CC038F5883729F050F4883611F0803783
:1042300029F683E0809365041092630457C08838A0
:1042400009F47BC0803919F0803809F0B7CF80912C
:104250006304803208F071C0E091630481E08E0F46
:10426000809363048091BB00F0E0ED5BFB4F8083A3
:104270003DC0803B39F0E0F4803A09F479C0883AD7
:1042800009F09CCF84E08093650410924004109262
:104290003F04E0913D04F0913E04099580913F0474
:1042A00081110FC081E080933F0410921D0409C06A
:1042B000803C09F4A6CF883C09F4A3CF883B09F0E1
:1042C0007DCFE091400481E08E0F80934004F0E0C8
:1042D000E35EFB4F80818093BB009091400480910E
:1042E0003F0429C080918A048093BB0085EC8093B1
:1042F000BC0064CF9091890480918804981758F588
:10430000E091890481E08E0F80938904F0E0E85900
:10431000FB4F8081E9CFE091890481E08E0F80938B
:1043200089048091BB00F0E0E859FB4F80839091B5
:104330008904809188049817C8F285E8D8CFE09165
:10434000890481E08E0F809389048091BB00F0E0A6
:10435000E859FB4F80838091670481115CCF81E035
:104360008093660484EA8093BC001092650426CF93
:1043700085EC8093BC0010926504809163048032C8
:1043800030F4E0916304F0E0ED5BFB4F108260914C
:10439000630470E0E0914104F091420483E494E00E
:1043A0000995109263040ACF1092640434CF1F92CF
:1043B0000F920FB60F9211242F933F938F939F93D9
:1043C000AF93BF938091CA039091CB03A091CC038C
:1043D000B091CD033091C90323E0230F2D3758F559
:1043E0000196A11DB11D2093C9038093CA03909328
:1043F000CB03A093CC03B093CD038091CE039091D7
:10440000CF03A091D003B091D1030196A11DB11D9E
:104410008093CE039093CF03A093D003B093D103A6
:10442000BF91AF919F918F913F912F910F900FBEB0
:104430000F901F90189526E8230F0296A11DB11D1D
:10444000D2CF1F920F920FB60F9211242F933F934A
:104450004F935F936F937F938F939F93AF93BF938C
:10446000EF93FF938BE994E00E94380EFF91EF9158
:10447000BF91AF919F918F917F916F915F914F917C
:104480003F912F910F900FBE0F901F9018951F9284
:104490000F920FB60F9211242F938F939F93EF9348
:1044A000FF93E091AB04F091AC048081E091B10402
:1044B000F091B20482FD1BC090818091B4048F5FA3
:1044C0008F732091B504821741F0E091B404F0E0BD
:1044D000E556FB4F958F8093B404FF91EF919F9128
:1044E0008F912F910F900FBE0F901F901895808184
:1044F000F4CF1F920F920FB60F9211240F931F93B8
:104500002F933F934F935F936F937F938F939F93DB
:10451000AF93BF93CF93DF93EF93FF9386B1C82FF1
:10452000C17082FBDD27D0F91D2F9091B1039C173C
:1045300069F0CC2359F0E091BB03F091BC0381FFFB
:1045400004C0E091B903F091BA030995C093B10397
:104550008091B003813011F41123D9F08091B00320
:10456000882339F1D093B003FF91EF91DF91CF9180
:10457000BF91AF919F918F917F916F915F914F917B
:104580003F912F911F910F910F900FBE0F901F9091
:1045900018950E940B0B6093AC037093AD0380934E
:1045A000AE039093AF03E091B703F091B803099580
:1045B000D9CF1130B9F68091AC039091AD03A091A1
:1045C000AE03B091AF03892B8A2B8B2B59F20E943B
:1045D0000B0B0091AC031091AD032091AE03309111
:1045E000AF03601B710B820B930B653F714081051C
:1045F000910508F4B7CFE091B503F091B603D7CF9A
:104600004F925F926F927F928F929F92AF92BF92E2
:10461000CF92DF92EF92FF92CF93DF9300D000D042
:10462000CDB7DEB7109292041092910488EEC82E96
:1046300083E0D82EE12CF12CC0929304D092940404
:10464000E0929504F092960485E891E090939004AE
:1046500080938F0410929E0410929D04C0929F0438
:10466000D092A004E092A104F092A20487E991E024
:1046700090939C0480939B0485EC90E09093A80415
:104680008093A70484EC90E09093AA048093A904FB
:1046900080EC90E09093AC048093AB0481EC90E0CC
:1046A0009093AE048093AD0482EC90E09093B004BC
:1046B0008093AF0486EC90E09093B2048093B104B1
:1046C0001092B4041092B5041092B6041092B7047C
:1046D00080910F0190911001A0911101B0911201F0
:1046E00089839A83AB83BC8380900B0190900C01EB
:1046F000A0900D01B0900E0140900701509008016C
:104700006090090170900A016091010170910201AD
:1047100090E080E00E94292E2DEC35E03093990640
:104720002093980621ED35E030939B0620939A065E
:1047300021EB36E030939D0620939C0610929E0656
:1047400010929F061092A0061092A1066093A206F6
:104750007093A3068093A4069093A50640927C06CE
:1047600050927D0660927E0670927F06809280064F
:1047700090928106A0928206B092830689819A81E6
:10478000AB81BC818093840690938506A0938606B6
:10479000B0938706C092A606D092A706E092A8061C
:1047A000F092A9061092B0061092AF061092BA06C7
:1047B0001092B9061092DC051092DB0582EC97E0AE
:1047C000909359068093580610925A0610925B06F1
:1047D0001092F50589EA91E09093DA058093D90566
:1047E0001092DE051092DD051092F2051092E90597
:1047F0001092EA051092EB051092EC058FEF809372
:10480000F3058093F705EBEFF5E081E196E0AFEF7C
:10481000A1938E179F07D9F787EA9FE09093E2054F
:104820008093E1058CE990E19093E4058093E305A2
:1048300082E997E19093E6058093E50583ED98E1A1
:104840009093E8058093E70530E020E040E069E0E0
:104850008DED95E00E94A70F109229061092280670
:104860008CEC97E0909312068093110688E395E014
:10487000909316068093150681E080931706109298
:1048800018061092350610925506809356068093AE
:10489000570681EB91E090931406809313068DEDFB
:1048A00095E00E9453111092240610922606BFEF45
:1048B000B0932506B0932706E0911306F0911406F5
:1048C0000280F381E02D8DED95E009958FE298E06F
:1048D00090932B0680932A06109238062FEF209390
:1048E0000606209307062093080610927006109281
:1048F000710610927206109273061092740610924E
:10490000750610927606109277061092780610922D
:10491000790610927B0610927A0688E08093D6057D
:1049200087E08093D80586E08093D70561E087E033
:104930000E94AA0A61E08091D6050E94AA0A60E05E
:104940008091D7050E94AA0A61E08091D8050E9453
:10495000F9091092CC051092CD051092CE05109257
:10496000CF051092D0051092D1051092D205109269
:10497000D3051092D4051092D5050F900F900F908B
:104980000F90DF91CF91FF90EF90DF90CF90BF908D
:10499000AF909F908F907F906F905F904F90089511
:1049A000CF93DF93CDB7DEB7AE970FB6F894DEBFE7
:1049B0000FBECDBF789484B5826084BD84B581601C
:1049C00084BD85B5826085BD85B5816085BD8091DA
:1049D0006E00816080936E00109281008091810052
:1049E000826080938100809181008160809381004A
:1049F000809180008160809380008091B10084600C
:104A00008093B1008091B00081608093B00080916C
:104A10007A00846080937A0080917A00826080932B
:104A20007A0080917A00816080937A0080917A0088
:104A3000806880937A001092C100E091AB04F091FD
:104A4000AC0482E08083E091A704F091A804108276
:104A5000E091A904F091AA0410E110831092B3042C
:104A6000E091AF04F091B00486E08083E091AD0462
:104A7000F091AE04808180618083E091AD04F0917B
:104A8000AE04808188608083E091AD04F091AE0433
:104A9000808180688083E091AD04F091AE048081D4
:104AA0008F7D80838BE092E00E94E21B87EB91E098
:104AB0000E94E21B0E94771D10930B068EE08093EC
:104AC0000C068FE080930D068FEF80930F06809386
:104AD000100680930E06E091E105F091E20530E0CA
:104AE00020E040E06AE08DED95E009950E942D1AE6
:104AF000E091E105F091E20530E020E040E06BE07C
:104B00008DED95E0099510925A0610925B06109271
:104B1000F5050E942D1A0E94E81961E084E00E94C8
:104B2000AA0A62E08EE00E94AA0A62E08FE00E9478
:104B3000AA0A62E080E10E94AA0A8091680082606D
:104B40008093680080916C00816080936C008091FC
:104B50006C00826080936C0080916C008460809314
:104B60006C00789486E39DE09093BC038093BB0334
:104B70008DE69DE09093BA038093B9038DE99DE0A3
:104B80009093B8038093B7038BE699E19093B603B3
:104B90008093B50361E085E00E94AA0A80E00E944C
:104BA000270A6091140170E090E080E00E94292EB5
:104BB0006B017C016091130170E090E080E00E9445
:104BC000292E60939006709391068093920690939D
:104BD0009306C0929406D0929506E0929606F092C3
:104BE00097068091030190910401B0E0A0E08093CA
:104BF000A6069093A706A093A806B093A9060E94C4
:104C00000B0B6093B5067093B6068093B70690932E
:104C1000B8068BE192E00E94E21B87EB91E00E94D4
:104C2000E21B0E940B0B4B015C0146E0242E41E18C
:104C3000342E52ECC52E57E0D52E0E940B0B2B01C3
:104C40003C01481459046A047B04D8F44092C5031B
:104C50005092C6036092C7037092C8034092C1038A
:104C60005092C2036092C3037092C4034092BD038A
:104C70005092BE036092BF037092C0035301420181
:104C8000DCCF8091C1039091C203A091C303B09186
:104C9000C40386509F4FAF4FBF4F481659066A0650
:104CA0007B0608F43DC08093C1039093C203A09398
:104CB000C303B093C40360E08091D8050E94F90952
:104CC00083E290E00197F1F70E94330A082F10E089
:104CD000102F00270E94330A082B61E08091D8052D
:104CE0000E94F90960E070E080EC9FE702FD10C0CF
:104CF00023E0169507952A95E1F7B80190E080E04A
:104D00000E94292E20E030E040E85EE30E948A2ED7
:104D10006093CD057093CE058093CF059093D00519
:104D200020910301309104018091BD039091BE0355
:104D3000A091BF03B091C003820F931FA11DB11DAD
:104D4000481659066A067B0608F4DFC08093BD0347
:104D50009093BE03A093BF03B093C0038091AF06AE
:104D60009091B006009709F4CDC0019709F41DC1D8
:104D700010911301112309F41BC12091CD0530912D
:104D8000CE054091CF055091D0056091D10570912D
:104D9000D2058091D3059091D4050E940E304B012D
:104DA0005C01612F70E090E080E00E942B2E9B015F
:104DB000AC01C501B4010E94233118160CF0F8C0F3
:104DC00082E090E09093BA068093B9060E940B0BA4
:104DD0002091B5063091B6064091B7065091B806BD
:104DE0002BA73CA74DA75EA78090010190900201E0
:104DF000B12CA12C7B018C01E21AF30A040B150BD8
:104E00008E149F04A006B10670F489019A01080D62
:104E1000191D2A1D3B1D0093B5061093B60620935D
:104E2000B7063093B8060091B5061091B6062091EA
:104E3000B7063091B806601B710B820B930B0E9472
:104E4000292E9B01AC0111E06091B1067091B20670
:104E50008091B3069091B4060E94233118160CF08D
:104E600010E0812F0E94270A85E292E00E94E21B57
:104E70006091D1057091D2058091D3059091D405B0
:104E800042E00E94631C8EE292E00E94E21B60916D
:104E9000CD057091CE058091CF059091D00542E06F
:104EA0000E94631C88E392E00E94E21B6091B906B5
:104EB0007091BA06072E000C880B990B97FFA4C0BF
:104EC0000E94331C8DE492E00E94E21B6091B106C7
:104ED0007091B2068091B3069091B40642E00E94B0
:104EE000631C88E592E00E94E21B6091D50570E0AA
:104EF00090E080E04AE00E94EF1B87EB91E00E9487
:104F0000E21B03C080E00E94270A8091C5039091B4
:104F1000C603A091C703B091C8038C599F4FAF4FF0
:104F2000BF4F481659066A067B0608F4CAC080932C
:104F3000C5039093C603A093C703B093C8038091A1
:104F40007A0690917B06019709F034C10E94251AD8
:104F500084E095E00E94991360E672E0CE014B96E2
:104F60000E940C1F68E672E0CE014B960E94D41E90
:104F70006EE672E0CE014B960E94D41E40E752E0EE
:104F800061E08B8D9C8D0E94231B853009F4E7C066
:104F900008F03EC0833009F473C0843009F4C2C005
:104FA00010927B0610927A0684C00E94170BE0CE06
:104FB00010911401112329F12091D1053091D205CE
:104FC0004091D3055091D4056091CD057091CE05E7
:104FD0008091CF059091D0050E940E304B015C016D
:104FE000612F70E090E080E00E942B2E9B01AC01CD
:104FF000C501B4010E94233118161CF483E090E02F
:10500000E1CE81E090E0DECE4AE00E94EF1B5ACF75
:10501000873009F4CCC0883019F680E091E00E9416
:10502000A3084B015C0189829A82AB82BC8286E133
:10503000E0E0F1E0DE01159601900D928A95E1F72E
:1050400086E593E00E94E21BC501B4010E94541C56
:10505000AE014F5F5F4F7A0110E000E0F7019190E1
:105060007F01C8010E944B2F981621F0692DC801BD
:105070000E94532F0F5F1F4F0A31110579F790CF10
:105080000E94251A84E095E00E94991380911501F1
:1050900062E0811161E04AED52E081EF92E00E940E
:1050A000231B8130C9F18230D1F10E94FE19811198
:1050B000E9CFCE014B960E944D1E0E94FE19811130
:1050C00047CF8090CD059090CE05A090CF05B090B1
:1050D000D00520E030E046E153E4C501B4010E9470
:1050E000233161E087FF14C020E030E048EC52E457
:1050F000C501B4010E94233187FDA0C1C301B201E3
:1051000024EF31E040E050E00E94D22F622F617026
:1051100084E00E94F909B2CD80931501C6CF1092A8
:105120001501C3CF0E94251A84E095E00E949913CF
:1051300067E071E080E093E00E94891F6BE071E01E
:1051400086E093E00E94891F6FE071E08CE093E0BD
:105150000E94891F0E94FE198111E6CFAACF0E94EA
:10516000251A84E095E00E94991392E1E92E93E0DC
:10517000F92E03E02FEF43E151E067E173E08EE1A8
:1051800093E00E94351A882309F493CF2FEF44E16E
:1051900051E068E373E08EE393E00E94351A8823C0
:1051A00009F487CF0E94FE198111DBCF82CF0E94C4
:1051B000771D7FCF20917106309172064091730662
:1051C000509174066091CD057091CE058091CF0508
:1051D0009091D0050E94242E81111BC0209175064C
:1051E0003091760640917706509178066091D1050E
:1051F0007091D2058091D3059091D4050E94242E00
:10520000811107C09091D50580917906981709F40E
:1052100058CF69EB71E0CE0181960E940C1F0E946D
:10522000251A8BE7E82E83E0F82E84E095E00E94B3
:1052300099138091B9069091BA068230910551F187
:105240008330910509F4F3C0019709F04AC06CE678
:1052500073E0CE0181960E947D1E6091B10670912F
:10526000B2068091B3069091B4060E94F430CE014C
:1052700081960E94DE1E61E773E0CE0181960E9456
:10528000D41E6091010170910201CE0181960E94AD
:10529000DE1E1DC065E673E0CE0181960E947D1E74
:1052A0001092350681E00E94A00889A19AA1D092AF
:1052B000E005C092DF050E94BC1442E0480F20E1E7
:1052C00060E080E00E94911280E00E94A00849A165
:1052D0005AA1D092E005C092DF056DE081E00E9406
:1052E000191681E00E94A0083092E0052092DF05A7
:1052F00043E153E06EE38CE60E9419166091D105FC
:105300007091D2058091D3059091D4050E94ED3023
:105310007F936F93FF92EF9221E030E02C0F3D1FBF
:105320003F932F930E942633D092E005C092DF0571
:10533000AE014F5F5F4F60E280E00E9419168091DE
:10534000D1059091D205A091D305B091D405809359
:10535000750690937606A0937706B093780687E556
:1053600093E00E9499136091CD057091CE058091D4
:10537000CF059091D0058E010F5F1F4F21E046E0D1
:105380000E94302AB801CE014B960E940C1FBE012C
:10539000655E7F4FCE0181960E94021ECE014B9624
:1053A0000E944D1E62E173E0CE0181960E94D41EE0
:1053B00049A15AA13092E0052092DF056FE38EE10A
:1053C0000E9419168091CD059091CE05A091CF0530
:1053D000B091D0058093710690937206A0937306E6
:1053E000B09374060F900F900F900F900F900F9046
:1053F0008091D505882371F08DE991E00E94991381
:10540000D092E005C092DF0545E153E06EE385E010
:105410000E9419168091D505809379060E94FE1985
:10542000811103CFCE0181960E944D1E4ACED092AB
:10543000E005C092DF0543E753E04FCF20E030E0C6
:1054400048E452E4C501B4010E94233160E087FDC5
:105450005FCEC301B20128EE33E040E050E054CE0D
:10546000EF920F931F93CF93DF93E80134E047FD52
:1054700034E1042E000C550B57FF03C051954195A4
:105480005109E32E022F242FAE010E946C2ACE0177
:10549000DF91CF911F910F91EF90089566277727A5
:1054A0000C94CB2BBB27FB015527AA27880F991FEC
:1054B000AA1FA41710F0A41B83955051B9F7A05D43
:1054C000AA3308F0A95DA193009779F7B111B193C0
:1054D0001192CB010C94142EA9E0B0E0E2E7FAE2BD
:1054E0000C94722F6A01F22EB02E102FFBE3AF2E18
:1054F000A01608F41BE31F5F012F27E0AE014F5FEA
:105500005F4F0E941B2DBC018981982F99709130AB
:1055100009F43FC09BE2E1FC04C09E2D9170E0FCC9
:105520003AC05E2D5071E82FE87083FF46C084E0DA
:10553000911101C083E0EF2DE81B8F1508F0E0E02A
:10554000D6018E2F20E2552351F1992329F0D6015F
:105550009C93C60101966C0196012D5F3F4FE2FEC0
:1055600024C08EE4D6018C9391E411969C931197FC
:1055700012968C93D9018E2F90E281111BC0E20FFD
:10558000F32FF11D10828EEF9FEF2996ECE00C9423
:105590008E2F9DE2C6CF90E2C4CF2D938150811112
:1055A000FCCFCE0ED11CE0E0D0CF8EE6D6018C939E
:1055B00091E6DBCF9D938150E0CF482F447082FF6E
:1055C0003DC084E0911101C083E08F1510F4EF2DF0
:1055D000E81BD6018E2F20E2552309F1992329F0EB
:1055E000D6019C93C60101966C0196012D5F3F4F39
:1055F000E2FE1BC089E4D6018C938EE411968C9355
:10560000119786E412968C93D9018E2F90E288230D
:1056100009F4B5CF9D938150FACF2D93815081111C
:10562000FCCFCE0ED11CE0E0D9CF89E6D6018C9319
:105630008EE611968C93119786E6E4CF9B0177FF57
:1056400002C030E020E0A1E0B0E0911102C0B0E083
:10565000A0E0F9013196AE0FBF1F8B2C912CBB201F
:1056600009F461C05401EFEFAE1ABE0AAA0DBB1DCA
:10567000FA161B0619F014F04F2D4A1B511188C061
:10568000E3FC59C07601A42FB0E2A1114FC0C40EB3
:10569000D11C992309F45BC040E0D6011196F601B4
:1056A00090836D01552309F448C0012F060F9A819C
:1056B000582F507184FF03C0913309F40150101624
:1056C0000CF047C0093008F008E0EEE2FE2E5B0166
:1056D000A01AB10885019194819491082F3F320757
:1056E00029F4D601FC92F60131966F016217730717
:1056F00094F1021713077CF5DB01A21BB30BAA245C
:10570000A394B12CAC0EBD1EAA0DBB1D11968C919D
:1057100021503109D601119628153905F4F0F6010A
:1057200080836D01DBCFB12CA12CA0CFF701B19309
:105730007F01A150AACF9111B0CFD601942F50E391
:1057400002C05D9391509111FCCFC40ED11C40E07A
:10575000ACCF01E0BACF80E3DBCF6217730731F43F
:10576000963388F4953311F4552369F0F60180835C
:10577000FD01842F90E2811108C0A40FB11D1C927D
:1057800090E080E002CF81E3F1CF91938150F3CF9D
:10579000911183CF8ACFB0E0A0E0E1EDFBE20C9461
:1057A000722F5C017B016115710519F0DB018D938E
:1057B0009C9385010F5F1F4FF501D0818D2F90E0E5
:1057C0000E94F32D6C01892BB9F5DD32B9F50F5F1D
:1057D0001F4FD5011196DC91C1E05801F1E0AF1ADD
:1057E000B10843E050E060E770E0C5010E94FC2D85
:1057F000892B69F5680182E0C80ED11C45E050E0B4
:105800006BE670E0C6010E94FC2D892B21F4680133
:1058100097E0C90ED11CE114F10419F0D701CD9223
:10582000DC9260E070E080E89FEFC111FFC060E0B3
:1058300070E080E89FE7FAC05801BBCFDB3229F463
:1058400085010E5F1F4FF501D181C0E0C6CF43E057
:1058500050E068E670E0C5010E94FC2D892BE9F05C
:10586000F80110E000E020E030E0A9015F01B0EDB8
:105870008B2E8D0E89E08815C8F19C2E689491F8C6
:105880008C2F8870C2FF16C0811102C00F5F1F4F9E
:105890003196D501DC91C92DE9CFE114F10429F04D
:1058A0000E5F1F4FF7011183008360E070E080EC12
:1058B0009FE7BCC0882311F001501109A5E0B0E0BA
:1058C0000E94612F9B01AC01220F331F441F551F03
:1058D000280D311D411D511D283999E93907490706
:1058E00099E15907A8F2C6609C2ED2CFAEEF8A127A
:1058F00006C0C3FD3CC09C2E689493F8C9CFDF7DE1
:10590000D534A9F580818D3239F4C061DF0112965A
:10591000818162E070E006C0DF018B32C1F3119635
:1059200061E070E080535D01A61AB70A8A30F8F48E
:10593000E0E8CE16ECE0DE065CF4B601660F771FF9
:10594000660F771FC60ED71ECC0CDD1CC80ED11CEF
:105950005D01FFEFAF1ABF0A8C9180538A30A8F126
:10596000C4FF03C0D194C194D1080C0D1D1DC1FF0B
:1059700009C0E114F10431F081E0A81AB108D7019F
:10598000AD92BC92CA01B9010E94292EC370C330E6
:1059900009F490584B015C0120E030E0A9010E941D
:1059A000242E882309F440C0CFE9D0E017FF05C0BA
:1059B000119501951109C7E8D0E06E01B8E1CB1A45
:1059C000D10880E2E82EF12C0FC0D501B1CFFE0145
:1059D00025913591459154910E191F09C501B401C6
:1059E0000E948A2E4B015C01D501C4010E151F05D2
:1059F00074F72497F594E794CC16DD06A9F78A2F5F
:105A0000880F8B2F881F8F3F49F020E030E0A901DD
:105A1000C501B4010E94242E811106C082E290E0EB
:105A20009093BC068093BB06C501B401CDB7DEB729
:105A3000ECE00C948E2F283008F027E03327DA01B1
:105A4000990F311D87FD916000966105710539F44C
:105A500032602E5F3D9330E32A95E1F708959F3F32
:105A600030F080387105610509F03C5F3C5F3D9383
:105A7000913008F08068911DDF93CF931F930F93AF
:105A8000FF92EF92192F987F9695E92F969596950C
:105A9000E90FFF27E350FF4F99273327EE24FF2418
:105AA000A701E70105900894079428F4360FE71E34
:105AB000F81E491F511D660F771F881F991F0694F6
:105AC000A1F70590079428F4E70EF81E491F561F0A
:105AD000C11D770F881F991F661F0694A1F70590B7
